:040000000C94AF00AD
:1400E4000000204100003443E12E6542F304353F000000000F
:1400F80000000000000080BF4E8F4A41006D29414E8F4A410E
:14010C0065D0CB40DB0F493F0000803FDB0FC93F7A821A4026
:14012000CD13D43EDB0F49C0DB0F4940DB0FC9BFDB0FC93F0F
:14013400000000000000000000000000000000000000804EE9
:140148000000803F0000003F000000000000000000000000A5
:01015C0000A2
:14015E00CFEFD1E2CDBFDEBFCE51D0400AEA08830024E5E05C
:14017200F2E012E0E730F10711F00192FBCF0083E8E5F1E027
:14018600A0E0B2E011E000E00BBFED35F10721F0C895319669
:14019A000D92F9CF0E94ED02FFCF000000000000000000008B
:1401AE0008950E94450358014427552703C0F3DF4F5F5F4F85
:1401C2004A155B05D0F30C944A030027112702C00F5F1F4FBD
:1401D600043FE1E01E07D0F308950E94450358014427552762
:1401EA0003C0EFDF4F5F5F4F4A155B05D0F30C944A03AA9269
:1401FE00CA92A22EC02E84EA86BF26B627FEFDCF81B1887F1A
:14021200883011F001E02BC08CE383B984E886BF26B627FEF6
:14022600FDCF81B1887F883111F001E01EC0C3B884E886BF1A
:14023A0026B627FEFDCF81B1887F883211F001E012C0A3B8E1
:14024E0084E886BF26B627FEFDCF81B1887F883211F001E049
:1402620006C084E986BF0AE010E0B9DF0027C990A990089548
:14027600AA9284EA86BF26B627FEFDCF81B1887F883011F0C6
:14028A0001E040C08CE383B984E886BF26B627FEFDCF81B124
:14029E00887F883111F001E033C003B984E886BF26B627FE49
:1402B200FDCF81B1887F883211F001E027C084EA86BF26B621
:1402C60027FEFDCF81B1887F803111F001E01CC08DE383B9DF
:1402DA0084E886BF26B627FEFDCF81B1887F803411F001E0C3
:1402EE000FC084E886BF26B627FEFDCF81B1887F883511F0B8
:1403020001E004C0A3B084E986BF0A2DA99008958AB3806F04
:140316008ABBA79AA69A08E214D00DD008E210E044DF08E27B
:14032A000ED00CE00CD001E00AD00AE010E053DF0895AF9A6C
:14033E0001E010E036DFAF9808954A93402F00E110E02FDFB6
:14035200AE988BB38F708BBB842F807F2BB2282A2BBAEBDF3E
:14036600842F8F708295482F8BB38F708BBB842F807F2BB231
:14037A00282A2BBADEDF499108954A93402F00E110E011DFF7
:14038E00AE9A8BB38F708BBB842F807F2BB2282A2BBACDDF1E
:1403A200842F8F708295482F8BB38F708BBB842F807F2BB2F5
:1403B600282A2BBAC0DF499108950E945903A22E602FAA20BF
:1403CA0019F4462F405802C0462F4054042FB7DF0C9460036E
:1403DE000E946703C22EA02E4E815F812C2D0A2DE8DF05C076
:1403F200FA010081C6DF4F5F5F4FFA0120802220B9F70C944D
:140406006E03AA92CA92C22EA02E2C2D0A2DD5DF0A81B5DFB8
:14041A00C990A99008954A935A93A80120E137E28A010E94E5
:14042E000503C801C0968093000220E137E28A010E94030331
:14044200A80128EE33E00E940503C801C0968093010228EEDF
:1404560033E08A010E940303A80124E630E00E940503C80116
:14046A00C0968093020224E630E08A010E940303A8012AE011
:14047E0030E00E940503C801C096809303022AE030E08A01D4
:140492000E940303A801CA01C096809304025991499108956A
:1404A6000E943E032C9703E010E0E2DEC02EDD2404E010E046
:1404BA00DDDEDC2CC02E07E010E0D8DEA02EBB2408E010E06B
:1404CE00D3DEE02EBA2CAE2C86010E945B04088319832A833F
:1404E2003B8385010E945B040E94C307180129010CEE10E028
:1404F6000E941F035A924A923A922A920E940B0618012901E8
:14050A0008EE10E00E941F033A932A931A930A93810192014A
:14051E000E9409040C831D832E833F8304EE10E00E941F03D2
:14053200CE0104969A938A930E9401060C831D832E833F83B7
:140546000C811D812E813F810E942D0466DF81E48883222736
:14055A00002755DF8EE68883222701E050DF87E68883222799
:14056E0002E04BDF8CE68883222703E046DF85E688832227E0
:1405820004E041DF8AE38883222705E03CDF20900102288243
:14059600222706E036DF209002022882222707E030DF2090C0
:1405AA0003022882222708E02ADF8EE28883222709E025DFA3
:1405BE0020900402288222270AE01FDF8FED888322270BE0DD
:1405D2001ADF2C960C94330302E310E000DE98DE0AC0222748
:1405E60002E009DE02E310E0F8DD5ADF02E310E0F4DDF5CFEB
:1405FA0008953A932A931A930A930895689401C0E894EA922A
:14060E00FA928A93EE24FF2480E1000F111FEE1CFF1CE2163D
:14062200F30618F0E21AF30A03958A95A1F716F40E2D1F2DEA
:140636008991F990E9900895EA93FA930A92E02FF12FD895B5
:14064A00002D3196D895102D3196D895202D3196D895302DEC
:14065E000990F991E9910895A990B990C990D990E990F99008
:1406720008957A936A935A934A93FA92EA92DA92CA92BA92E7
:14068600AA9208955A934A93BA92AA920895A990B99049913C
:14069A00599108957A936A935A934A93089549915991699196
:1406AE00799108957A936A935A934A93BA92AA920895A9905F
:1406C200B990499159916991799108955A934A93DA92CA92E4
:1406D600BA92AA920895A990B990C990D99049915991089546
:1406EA0000951095209530950F5F1F4F2F4F3F4F08950F9222
:1406FE000990002031F0000F111F221F331F0A94F8CF0F9038
:140712000895689401C0E8940E9493050E94290509F447C0EF
:14072600E62ED52EC42EB32EA22E912E802E008111812281E2
:14073A0033810E94290509F443C0842F952F8C199D09B9F0BC
:14074E0072F49095809501964C2D5D2D8831B0F53595279579
:14076200179507950197D1F708C0883110F5B594A7949794A6
:1407760087940197D1F766272EF0080D191D2A1D3B1D09C096
:14078A00801A910AA20AB30A082D192D2A2D3B2D33231AF41F
:14079E000E94750360E80E944E0502C00E947C050E94A205C2
:1407B20008950081118122813381C6F70E943105A9F340E8D3
:1407C6003427F2CF082D192D2A2D3B2D4C2D5D2D6E2D3323D5
:1407DA003AF70E94750360E8E3CFFA93EA93EA81FB810E9433
:1407EE008C03E991F99122960895FA93EA93EA81FB810E947C
:140802008C03E991F991398328831A930A930895FA93EA93F7
:14081600EC2FFD2F32960E948C03E991F99124960895FA93A6
:14082A00EA93EC2FFD2F32960E948C03E991F9913B832A838E
:14083E00198308830895FA93EA93EC2FFD2F32960E948A039A
:14085200E991F991249608954A935A936A930E943905F1F0AF
:140866005523C2F04F31A8F44731C1F050F44195495E05C089
:14087A0035952795179507954A95D1F70DC04751000F111F51
:14088E00221F331F4A95D1F705C03FE7232F132F032F04C0A7
:1408A200662311F00E9475036991599149910895689401C086
:1408B600E8942227332746F017FD209517FD309503C0689478
:1408CA0001C0E8944A935A936A9347E1662755272EF0332371
:1408DE001AF40E94750360E80E944E05699159914991089546
:1408F200FA93EA93EA81FB8127D0E991F99122960895FA9324
:14090600EA93EC2FFD2F32961DD0E991F99124960895FA937C
:14091A00EA93EA81FB8114D0E991F991398328831A930A93CC
:14092E000895FA93EA93EC2FFD2F329607D0E991F9913B8366
:140942002A831983088308954A925A926A927A928A929A9218
:14095600AA92BA92CA92DA92EA92FA924A935A936A937A9361
:14096A008A939A933A932A931A930A930081118122813381F1
:14097E000E94390509F461C0E62ED52EC42EB32EA22E912EEE
:14099200802E09911991299139910E94390591F16E254C1981
:1409A6005D09403853070CF03EC041387FEF57070CF442C0C4
:1409BA0080E27724632E522E412E302F2227112700276694AB
:1409CE005794479437952795000F111F221F331F441C551C24
:1409E200661C771C28F0481859086A087B0804C0480C591C91
:1409F6006A1C7B1C0AF001608A9551F70E944E0599918991D5
:140A0A007991699159914991F990E990D990C990B990A990CA
:140A1E0099908990799069905990499008950FEF102F2FE7CE
:140A32003FE7662339F30E947503E4CF0027102F202F302FF4
:140A4600DFCF0991199129913991EDCF0FD029F0662311F0E8
:140A5A000E94750398940895002329F4112319F4222309F4E2
:140A6E0033230895F7DF79F0632F6078220F331F432F5FE79D
:140A8200451B55275040269530E8232B332798940895442745
:140A9600552766270895E2DF21F19A938A938EE790E033234E
:140AAA0051F0369527951795079548175907C4F44F5F5F4F55
:140ABE00F4CF8095909501962223AAF0000F111F221F4817D2
:140AD20059071CF041505040F5CF00271127222733278991A3
:140AE6009991089533270FEF102F2FE7322F89919991B4DF50
:140AFA0039F041585F4F342F220F36952795362B0895AADFD6
:140B0E0021F00F9300E830270F910895F8DF3A932A931A9396
:140B22000A9308958A929A92AA92BA92CA92DA92EA92FA92E5
:140B36004A935A936A937A938A939A930895999189917991A2
:140B4A00699159914991F990E990D990C990B990A99099906A
:140B5E00899008950E949305AA93BA930E943905D1F1E62E53
:140B7200D52EC42EB32EA22E912E802E0081118122813381F2
:140B86000E94390561F16E254C0D5D1D403853075CF5413827
:140B9A007FEF570764F1A29EB12DA02D919E912D802DA09E63
:140BAE00800D911DA31FB31F829E800D911DA31FB31F929E45
:140BC200900DA11DB31FA19E900DA11DB31F2B2F1A2F092FAB
:140BD600880F001F111F221F331F0E944E05B991A9910E9477
:140BEA00A20508950FEF102F2FE74FE7F6CF0027102F202FB0
:140BFE00302FF1CFFA93EA93EA81FB810E94B105E991F99177
:140C120022960895FA93EA93EC2FFD2F32960E94B105E9918E
:140C2600F99124960895FA93EA93EA81FB810E94B105E99116
:140C3A00F991398328831A930A9308950E948A0333233AF01F
:140C4E000E94310511F001E00895002708950FEF0895FA934F
:140C6200EA93EA81FB810E942306E991F991229600230895D3
:140C7600FA93EA93EC2FFD2F32960E942306E991F9912496C8
:140C8A00002308950E94FE02288039804A805B8000E211E01B
:140C9E000E941F033A932A931A930A93810192010E943B06B2
:140CB20034F4088119812A813B8159D056C0CE010CE111E090
:140CC6000E941F039A938A930E943006BCF404E111E00E940C
:140CDA001F03CE019A938A930E94790444D01801290108E16C
:140CEE0011E00E941F035A924A923A922A920E94220435C030
:140D0200288039804A805B8004E111E00E941F033A932A93B3
:140D16001A930A93810192010E94220418012901688079807E
:140D2A008A809B8004E111E00E941F033A932A931A930A9322
:140D3E00830194010E941404810192010E94820410D0180198
:140D5200290100E111E00E941F033A932A931A930A93810177
:140D660092010E940904249608950E94FE020E944F0324978F
:140D7A00088519852A853B85CE0108969A938A930E9401066B
:140D8E00088319832A833B83288439844A845B840CE011E0CC
:140DA2000E941F03CE019A938A930E9401063801490108E04C
:140DB60011E00E941F033A932A931A930A93830194010E94E5
:140DCA001404810192010E940B0618012901688079808A8007
:140DDE009B80A301B40104E011E00E941F033A932A931A93BD
:140DF2000A938A019B010E941404830194010E940B0638016A
:140E0600490100E011E00E941F033A932A931A930A938301A1
:140E1A0094010E941404810192010E94820424960E94540385
:140E2E00249608950E94FE024A9324972D803E804F80588409
:140E42000CEF10E00E941F033A932A931A930A938101920104
:140E56000E943B065CF0CE01059604E111E00E941F039A9328
:140E6A008A930E9430065CF481E090E0909306028093050219
:140E7E0008EF10E00E941F037BC02D803E804F80588404EF71
:140E920010E00E941F033A932A931A930A93810192010E940D
:140EA6003B0614F041E00BC00D811E812F8138850E94860540
:140EBA000D831E832F8338874FEF04E111E00E941F03180191
:140ECE0029010D811E812F813885CE0105969A938A930E94F6
:140EE2001606810192010E9422040E94F408088319832A8391
:140EF6003B83CE01059600EF10E00E941F039A938A930E9431
:140F0A003006E4F4088119812A813B81CE0105969A938A9387
:140F1E000E947904B5DE1801290108E111E00E941F035A9240
:140F32004A923A922A920E942204088319832A833B830EC01F
:140F46000D811E812F813885CE019A938A930E9479049ADE4D
:140F5A00088319832A833B83222424162CF4088119812A8183
:140F6E003B8106C0088119812A813B810E94860524964991A2
:140F8200249608950E94FE022C803D804E805F8008E311E070
:140F96000E941F033A932A931A930A93810192010E943B06B7
:140FAA0081F5288039804A805B8008E311E00E941F033A934A
:140FBE002A931A930A93810192010E943B0659F481E090E002
:140FD200909306028093050204E311E00E941F0394C0CE0107
:140FE60008E311E00E941F039A938A930E9430062CF400E332
:140FFA0011E00E941F0385C00CE211E00E941F0380C0CE0137
:14100E00049608E311E00E941F039A938A930E9430067CF501
:14102200288039804A805B8008E311E00E941F033A932A938A
:141036001A930A93810192010E943B066CF0088119812A813A
:14104A003B81CE0104969A938A930E9479040E94470657C0FE
:14105E00088119812A813B810E948605CE0104969A938A9314
:141072000E9479040E9447060E94860546C0288039804A80FE
:141086005B8008E311E00E941F033A932A931A930A93810185
:14109A0092010E943B06DCF0088119812A813B810E94860549
:1410AE00CE0104969A938A930E9479040E944706180129012A
:1410C20008E211E00E941F035A924A923A922A920E94220463
:1410D6001AC0088119812A813B81CE0104969A938A930E944D
:1410EA0079040E9447061801290104E211E00E941F033A93DB
:1410FE002A931A930A93810192010E940904249608950E941A
:14111200FE02AA92BA922897AE84BF842A843B844C845D84EF
:1411260000E411E00E941F033A932A931A930A938101920133
:14113A000E943B0651F422243324F501318220820CE311E0B1
:14114E000E941F0345C02A843B844C845D84288239824A8275
:141162005B822A803B80220C331C3B822A82832D99278E57FC
:141176009040F501918380838EE78B832A803B80369427941B
:14118A003B822A822A843B844C845D8400E411E00E941F0331
:14119E003A932A931A930A93810192010E943B065CF4088198
:1411B20019812A813B810E9486050C831D832E833F8308C091
:1411C600288039804A805B802C823D824E825F820C811D81C6
:1411DA002E813F812896B990A990249608950E94FE020E94B7
:1411EE004F032C97288839884A885B8804E511E00E941F0314
:141202003A932A931A930A93810192010E943B065CF481E05B
:1412160090E0909306028093050200E511E00E941F031FC195
:14122A00288839884A885B8804E511E00E941F033A932A9362
:14123E001A930A93810192010E943B0629F400E511E00E94C5
:141252001F0309C1CE01029699838883088919892A893B8964
:141266000E9488080C831D832E833F832A803B8020FE13C04A
:14127A000C811D812E813F81CE0104969A938A930E94F2037C
:14128E000C831D832E833F838A819B8101979B838A830CE4D0
:1412A20011E00E941F03180129016C807D808E809F8008E43E
:1412B60011E00E941F033A932A931A930A93830194010E94E0
:1412CA001404810192010E940B060C831D832E833F8313C0BB
:1412DE0004E411E00E941F03CE0104969A938A930E94010603
:1412F2000C831D832E833F838A819B81CC979B838A838CE322
:1413060090E02A803B808215930534F319C02C803D804E8098
:14131A005F8004E411E00E941F033A932A931A930A938101ED
:14132E0092010E9482040C831D832E833F838A819B81CC96C5
:141342009B838A838A819B81843CAFEF9A070CF341E050E0F6
:1413560060E070E0488759876A877B878A819B818030A0E0FA
:14136A009A072CF11C0135942794088519852A853B852A92BA
:14137E000E947E03088719872A873B872C803D804E805F8080
:14139200088519852A853B850E9466043A932A931A930A93CD
:1413A600810192010E940B060C831D832E833F8329C08A81D5
:1413BA009B81809590958F5F9F4F95958795088519852A85CD
:1413CE003B858A930E947E03088719872A873B872C803D8000
:1413E2004E805F80088519852A853B850E9466043A932A931A
:1413F6001A930A93810192010E9482040C831D832E833F83BA
:14140A00222433243B822A820CE411E00E941F0318012901E0
:14141E00088919892A893B89CE0104969A938A930E9479043E
:14143200CE0104969A938A930E94FC03810192010E940B068A
:141446000C831D832E833F838A819B8101969B838A83823055
:14145A00A0E09A07CCF20C811D812E813F812C960E9454034A
:04146E002496089523
:00000001FF
